{
  "address": "0x6a237E78CbF2a6A76F1f73aA740227b6793E30B9",
  "abi": [
    {
      "inputs": [
        {
          "internalType": "address",
          "name": "_organizer",
          "type": "address"
        }
      ],
      "stateMutability": "nonpayable",
      "type": "constructor"
    },
    {
      "anonymous": false,
      "inputs": [
        {
          "indexed": true,
          "internalType": "uint8",
          "name": "coinId",
          "type": "uint8"
        },
        {
          "indexed": false,
          "internalType": "uint256",
          "name": "newPosition",
          "type": "uint256"
        },
        {
          "indexed": false,
          "internalType": "uint256",
          "name": "currentLap",
          "type": "uint256"
        }
      ],
      "name": "CoinAdvanced",
      "type": "event"
    },
    {
      "anonymous": false,
      "inputs": [
        {
          "indexed": true,
          "internalType": "uint8",
          "name": "winningCoinId",
          "type": "uint8"
        },
        {
          "indexed": false,
          "internalType": "uint256",
          "name": "duration",
          "type": "uint256"
        }
      ],
      "name": "GameFinished",
      "type": "event"
    },
    {
      "anonymous": false,
      "inputs": [],
      "name": "GameReset",
      "type": "event"
    },
    {
      "anonymous": false,
      "inputs": [
        {
          "indexed": false,
          "internalType": "uint256",
          "name": "timestamp",
          "type": "uint256"
        }
      ],
      "name": "GameStarted",
      "type": "event"
    },
    {
      "anonymous": false,
      "inputs": [
        {
          "indexed": true,
          "internalType": "uint8",
          "name": "coinId",
          "type": "uint8"
        },
        {
          "indexed": false,
          "internalType": "uint256",
          "name": "currentLap",
          "type": "uint256"
        }
      ],
      "name": "LapCompleted",
      "type": "event"
    },
    {
      "anonymous": false,
      "inputs": [
        {
          "indexed": true,
          "internalType": "address",
          "name": "player",
          "type": "address"
        },
        {
          "indexed": true,
          "internalType": "uint8",
          "name": "coinId",
          "type": "uint8"
        }
      ],
      "name": "PlayerJoined",
      "type": "event"
    },
    {
      "anonymous": false,
      "inputs": [
        {
          "indexed": true,
          "internalType": "address",
          "name": "player",
          "type": "address"
        },
        {
          "indexed": true,
          "internalType": "uint8",
          "name": "coinId",
          "type": "uint8"
        },
        {
          "indexed": false,
          "internalType": "uint256",
          "name": "playerTaps",
          "type": "uint256"
        },
        {
          "indexed": false,
          "internalType": "uint256",
          "name": "totalTaps",
          "type": "uint256"
        }
      ],
      "name": "PlayerTapped",
      "type": "event"
    },
    {
      "inputs": [],
      "name": "LAPS_TO_WIN",
      "outputs": [
        {
          "internalType": "uint256",
          "name": "",
          "type": "uint256"
        }
      ],
      "stateMutability": "view",
      "type": "function"
    },
    {
      "inputs": [],
      "name": "POSITION_PER_LAP",
      "outputs": [
        {
          "internalType": "uint256",
          "name": "",
          "type": "uint256"
        }
      ],
      "stateMutability": "view",
      "type": "function"
    },
    {
      "inputs": [
        {
          "internalType": "uint8",
          "name": "",
          "type": "uint8"
        }
      ],
      "name": "coinPosition",
      "outputs": [
        {
          "internalType": "uint256",
          "name": "",
          "type": "uint256"
        }
      ],
      "stateMutability": "view",
      "type": "function"
    },
    {
      "inputs": [
        {
          "internalType": "uint8",
          "name": "",
          "type": "uint8"
        }
      ],
      "name": "coinSupporters",
      "outputs": [
        {
          "internalType": "uint256",
          "name": "",
          "type": "uint256"
        }
      ],
      "stateMutability": "view",
      "type": "function"
    },
    {
      "inputs": [
        {
          "internalType": "uint8",
          "name": "",
          "type": "uint8"
        },
        {
          "internalType": "uint256",
          "name": "",
          "type": "uint256"
        }
      ],
      "name": "coinSupportersList",
      "outputs": [
        {
          "internalType": "address",
          "name": "",
          "type": "address"
        }
      ],
      "stateMutability": "view",
      "type": "function"
    },
    {
      "inputs": [
        {
          "internalType": "uint8",
          "name": "",
          "type": "uint8"
        }
      ],
      "name": "currentLap",
      "outputs": [
        {
          "internalType": "uint256",
          "name": "",
          "type": "uint256"
        }
      ],
      "stateMutability": "view",
      "type": "function"
    },
    {
      "inputs": [],
      "name": "gameEndTime",
      "outputs": [
        {
          "internalType": "uint256",
          "name": "",
          "type": "uint256"
        }
      ],
      "stateMutability": "view",
      "type": "function"
    },
    {
      "inputs": [],
      "name": "gameStartTime",
      "outputs": [
        {
          "internalType": "uint256",
          "name": "",
          "type": "uint256"
        }
      ],
      "stateMutability": "view",
      "type": "function"
    },
    {
      "inputs": [],
      "name": "gameState",
      "outputs": [
        {
          "internalType": "enum Race.GameState",
          "name": "",
          "type": "uint8"
        }
      ],
      "stateMutability": "view",
      "type": "function"
    },
    {
      "inputs": [
        {
          "internalType": "uint8",
          "name": "coinId",
          "type": "uint8"
        }
      ],
      "name": "getCoinProgress",
      "outputs": [
        {
          "internalType": "uint256",
          "name": "lap",
          "type": "uint256"
        },
        {
          "internalType": "uint256",
          "name": "position",
          "type": "uint256"
        },
        {
          "internalType": "uint256",
          "name": "totalPosition",
          "type": "uint256"
        }
      ],
      "stateMutability": "view",
      "type": "function"
    },
    {
      "inputs": [
        {
          "internalType": "uint8",
          "name": "coinId",
          "type": "uint8"
        }
      ],
      "name": "getCoinSupporters",
      "outputs": [
        {
          "internalType": "address[]",
          "name": "",
          "type": "address[]"
        }
      ],
      "stateMutability": "view",
      "type": "function"
    },
    {
      "inputs": [],
      "name": "getGameDuration",
      "outputs": [
        {
          "internalType": "uint256",
          "name": "",
          "type": "uint256"
        }
      ],
      "stateMutability": "view",
      "type": "function"
    },
    {
      "inputs": [],
      "name": "getGameStats",
      "outputs": [
        {
          "internalType": "uint256",
          "name": "totalPlayersCount",
          "type": "uint256"
        },
        {
          "internalType": "uint256",
          "name": "coin0Supporters",
          "type": "uint256"
        },
        {
          "internalType": "uint256",
          "name": "coin1Supporters",
          "type": "uint256"
        },
        {
          "internalType": "uint256",
          "name": "coin0Taps",
          "type": "uint256"
        },
        {
          "internalType": "uint256",
          "name": "coin1Taps",
          "type": "uint256"
        },
        {
          "internalType": "uint256",
          "name": "duration",
          "type": "uint256"
        }
      ],
      "stateMutability": "view",
      "type": "function"
    },
    {
      "inputs": [
        {
          "internalType": "address",
          "name": "player",
          "type": "address"
        }
      ],
      "name": "getPlayerCoin",
      "outputs": [
        {
          "internalType": "uint8",
          "name": "",
          "type": "uint8"
        }
      ],
      "stateMutability": "view",
      "type": "function"
    },
    {
      "inputs": [
        {
          "internalType": "address",
          "name": "player",
          "type": "address"
        }
      ],
      "name": "hasPlayerJoined",
      "outputs": [
        {
          "internalType": "bool",
          "name": "",
          "type": "bool"
        }
      ],
      "stateMutability": "view",
      "type": "function"
    },
    {
      "inputs": [
        {
          "internalType": "uint8",
          "name": "coinId",
          "type": "uint8"
        }
      ],
      "name": "joinRace",
      "outputs": [],
      "stateMutability": "nonpayable",
      "type": "function"
    },
    {
      "inputs": [
        {
          "internalType": "address",
          "name": "",
          "type": "address"
        }
      ],
      "name": "lastTapTime",
      "outputs": [
        {
          "internalType": "uint256",
          "name": "",
          "type": "uint256"
        }
      ],
      "stateMutability": "view",
      "type": "function"
    },
    {
      "inputs": [],
      "name": "organizer",
      "outputs": [
        {
          "internalType": "address",
          "name": "",
          "type": "address"
        }
      ],
      "stateMutability": "view",
      "type": "function"
    },
    {
      "inputs": [
        {
          "internalType": "address",
          "name": "",
          "type": "address"
        }
      ],
      "name": "playerSupports",
      "outputs": [
        {
          "internalType": "uint8",
          "name": "",
          "type": "uint8"
        }
      ],
      "stateMutability": "view",
      "type": "function"
    },
    {
      "inputs": [
        {
          "internalType": "address",
          "name": "",
          "type": "address"
        }
      ],
      "name": "playerTaps",
      "outputs": [
        {
          "internalType": "uint256",
          "name": "",
          "type": "uint256"
        }
      ],
      "stateMutability": "view",
      "type": "function"
    },
    {
      "inputs": [],
      "name": "resetGame",
      "outputs": [],
      "stateMutability": "nonpayable",
      "type": "function"
    },
    {
      "inputs": [],
      "name": "startGame",
      "outputs": [],
      "stateMutability": "nonpayable",
      "type": "function"
    },
    {
      "inputs": [],
      "name": "tap",
      "outputs": [],
      "stateMutability": "nonpayable",
      "type": "function"
    },
    {
      "inputs": [],
      "name": "totalPlayers",
      "outputs": [
        {
          "internalType": "uint256",
          "name": "",
          "type": "uint256"
        }
      ],
      "stateMutability": "view",
      "type": "function"
    },
    {
      "inputs": [
        {
          "internalType": "uint8",
          "name": "",
          "type": "uint8"
        }
      ],
      "name": "totalTaps",
      "outputs": [
        {
          "internalType": "uint256",
          "name": "",
          "type": "uint256"
        }
      ],
      "stateMutability": "view",
      "type": "function"
    }
  ],
  "transactionHash": "0xe08c79bc292b5a4281cd923cf30d501bdc3048938e0bcc14fe3d594ad3e328ba",
  "args": [
    "0xf33bfa994D5ebeb7DD14ff09fB0dEF2c8e2A7227"
  ],
  "numDeployments": 1,
  "solcInputHash": "a0f5c7c6e895cf4c849d95e4577ebc22",
  "bytecode": "0x60a060405234801561001057600080fd5b5060405161141438038061141483398101604081905261002f9161004a565b6001600160a01b03166080526000805460ff1916905561007a565b60006020828403121561005c57600080fd5b81516001600160a01b038116811461007357600080fd5b9392505050565b6080516113716100a3600039600081816102930152818161087d01526108f801526113716000f3fe608060405234801561001057600080fd5b50600436106101735760003560e01c806378e9ae60116100de578063c2b68c7c11610097578063d65ab5f211610071578063d65ab5f2146103e7578063f1301e9b146103ef578063f60cdcf61461040f578063fd2210311461041857600080fd5b8063c2b68c7c1461038a578063c3f1fd03146103aa578063d1f9c24d146103cd57600080fd5b806378e9ae601461030d5780638a0bea8a14610315578063915556f314610335578063a8cc946a14610348578063ae8c30cc1461035d578063bb4722191461038257600080fd5b806344d9bc5f1161013057806344d9bc5f1461025d57806347f851ca146102665780635bddf48514610286578063612032651461028e5780636d3c1190146102cd57806372a83c24146102ed57600080fd5b80630252b99514610178578063144b6ae114610194578063178b699d146101d25780631aff30dd146101f25780631b053fb71461022757806331cc4f7414610255575b600080fd5b610181600a5481565b6040519081526020015b60405180910390f35b6101c26101a2366004611081565b6001600160a01b031660009081526003602052604090205460ff16151590565b604051901515815260200161018b565b6101816101e0366004611081565b60066020526000908152604090205481565b6101fa610420565b604080519687526020870195909552938501929092526060840152608083015260a082015260c00161018b565b61023a6102353660046110c7565b610523565b6040805193845260208401929092529082015260600161018b565b610181606481565b610181600b5481565b6101816102743660046110c7565b60016020526000908152604090205481565b610181600381565b6102b57f000000000000000000000000000000000000000000000000000000000000000081565b6040516001600160a01b03909116815260200161018b565b6101816102db3660046110c7565b60026020526000908152604090205481565b6101816102fb366004611081565b60046020526000908152604090205481565b6101816105a3565b6101816103233660046110c7565b60086020526000908152604090205481565b6102b56103433660046110e2565b6105e1565b61035b6103563660046110c7565b610619565b005b61037061036b366004611081565b6107e4565b60405160ff909116815260200161018b565b61035b610872565b6101816103983660046110c7565b60056020526000908152604090205481565b6103706103b8366004611081565b60036020526000908152604090205460ff1681565b6000546103da9060ff1681565b60405161018b9190611122565b61035b6108ed565b6104026103fd3660046110c7565b610aa4565b60405161018b919061114a565b61018160075481565b61035b610b45565b6007547f5eff886ea0ce6ca488a3d6e336d6c0f75f46d19b42c06ce5ee98e42c96d256c7547fad67d757c34507f157cacfa2e3153e9f260a2244f30428821be7be64587ac55f54600560209081527f05b8ccbb9d4d8fb16ea74ce3c29a41f1b461fbdaff4714a0d9a8eb05499746bc54600160009081527f1471eb6eb2c5e789fc3de43f8ce62938c7d1836ec861730447e2ada8fd81017b54604080516303c74d7360e51b815290519394919330926378e9ae6092600480820193918290030181865afa1580156104f5573d6000803e3d6000fd5b505050506040513d601f19601f820116820180604052508101906105199190611197565b9050909192939495565b600080808360ff8116158061053b57508060ff166001145b6105605760405162461bcd60e51b8152600401610557906111b0565b60405180910390fd5b60ff85166000908152600160209081526040808320546002909252909120549094509250826105906064866111fb565b61059a9190611212565b93959294505050565b6000600a546000036105b55750600090565b600b546000036105d157600a546105cc9042611225565b905090565b600a54600b546105cc9190611225565b600960205281600052604060002081815481106105fd57600080fd5b6000918252602090912001546001600160a01b03169150829050565b6000805460ff1660028111156106315761063161110c565b1461067e5760405162461bcd60e51b815260206004820152601b60248201527f47616d65206d75737420626520696e206c6f62627920737461746500000000006044820152606401610557565b8060ff8116158061069257508060ff166001145b6106ae5760405162461bcd60e51b8152600401610557906111b0565b3360009081526003602052604090205460ff161580156106de57503360009081526003602052604090205460ff16155b6107225760405162461bcd60e51b8152602060048201526015602482015274141b185e595c88185b1c9958591e481a9bda5b9959605a1b6044820152606401610557565b61072d826001611238565b336000908152600360209081526040808320805460ff191660ff95861617905592851682526008905290812080549161076583611251565b909155505060ff82166000908152600960209081526040822080546001810182559083529082200180546001600160a01b0319163317905560078054916107ab83611251565b909155505060405160ff83169033907fd0eb1b69a7dd0e2a54c7f88607b1a7fdb2088d2b3685b36e3f5148b8f19f775790600090a35050565b6001600160a01b03811660009081526003602052604081205460ff166108445760405162461bcd60e51b8152602060048201526015602482015274141b185e595c881a185cc81b9bdd081a9bda5b9959605a1b6044820152606401610557565b6001600160a01b03821660009081526003602052604090205461086c9060019060ff1661126a565b92915050565b336001600160a01b037f000000000000000000000000000000000000000000000000000000000000000016146108ba5760405162461bcd60e51b815260040161055790611283565b6108c2610e6c565b6040517fc6976b6410888b44c765590c8368eb4a60e0431d4ad683c8a53ea85a8479f22e90600090a1565b336001600160a01b037f000000000000000000000000000000000000000000000000000000000000000016146109355760405162461bcd60e51b815260040161055790611283565b6000805460ff16600281111561094d5761094d61110c565b1461099a5760405162461bcd60e51b815260206004820152601b60248201527f47616d65206d75737420626520696e206c6f62627920737461746500000000006044820152606401610557565b6000805260086020527f5eff886ea0ce6ca488a3d6e336d6c0f75f46d19b42c06ce5ee98e42c96d256c754158015906109fd5750600160005260086020527fad67d757c34507f157cacfa2e3153e9f260a2244f30428821be7be64587ac55f5415155b610a5c5760405162461bcd60e51b815260206004820152602a60248201527f45616368207465616d206d7573742068617665206174206c65617374206f6e656044820152691039bab83837b93a32b960b11b6064820152608401610557565b6000805460ff1916600117905542600a8190556040519081527f50ad08f58a27f2851d7e3a1b3a6a46b290f2ce677e99642d30ff639721e777909060200160405180910390a1565b60608160ff81161580610aba57508060ff166001145b610ad65760405162461bcd60e51b8152600401610557906111b0565b60ff831660009081526009602090815260409182902080548351818402810184019094528084529091830182828015610b3857602002820191906000526020600020905b81546001600160a01b03168152600190910190602001808311610b1a575b5050505050915050919050565b600160005460ff166002811115610b5e57610b5e61110c565b14610bab5760405162461bcd60e51b815260206004820152601860248201527f47616d65206d75737420626520696e2070726f677265737300000000000000006044820152606401610557565b3360009081526003602052604090205460ff16610c0a5760405162461bcd60e51b815260206004820152601b60248201527f506c61796572206d757374206a6f696e207261636520666972737400000000006044820152606401610557565b33600090815260036020526040812054610c299060019060ff1661126a565b336000908152600460205260408120805492935090610c4783611251565b909155505060ff81166000908152600560205260408120805491610c6a83611251565b909155505033600090815260066020908152604080832042905560ff8416835260088252808320546005909252822054610ca491906112de565b90506000610cb38260026111fb565b90506000610cc26064836112de565b90506000610cd16064846112f2565b60ff8616600090815260016020526040902054909150821115610dab5760ff851660008181526001602052604090819020849055517f4eb7d7246b9133fe81825e991567dbb5310f51395ca03256f002ff232f9113a590610d359085815260200190565b60405180910390a260038210610dab576000805460ff1916600217905542600b819055600a5460ff8716917f4693af58a0787c10dd6c6e941b5ebaaa5f0d6e87d64e1e79a1b82b5db876799091610d8b91611225565b60405190815260200160405180910390a2610da4610e6c565b5050505050565b60ff851660008181526002602090815260408083208590553380845260048352818420548585526005909352928190205490517fea01bf1d4f8f91f094a2e7764763d9a6febd7a11977a65ec44c69efba924699292610e1292908252602082015260400190565b60405180910390a360ff8516600081815260016020908152604091829020548251858152918201527f0f741e61e9780ed611a7eaba3ed941108d325a6a61571af0793aac2612612c16910160405180910390a25050505050565b6000805460ff191681557fa6eef7e35abe7026729641147f7915573c7e97b47efa546f5f6e3230263bcb498190557fcc69885fda6bcc1a4ace058b4a62bf5e179ea78fd58a1ccd71c22cc9b688792f8190557fac33ff75c19e70fe83507db0d683fd3465c996598dc972688b7ace676c89077b8190557fe90b7bceb6e7df5418fb78d8ee546e97c83a08bbccc01a0644d599ccd2a7c2e081905560056020527f05b8ccbb9d4d8fb16ea74ce3c29a41f1b461fbdaff4714a0d9a8eb05499746bc819055600181527f1471eb6eb2c5e789fc3de43f8ce62938c7d1836ec861730447e2ada8fd81017b8190555b60028160ff1610156110355760005b60ff8216600090815260096020526040902054811015610ff45760ff82166000908152600960205260408120805483908110610fa557610fa5611306565b60009182526020808320909101546001600160a01b03168252600381526040808320805460ff191690556004825280832083905560069091528120555080610fec81611251565b915050610f67565b5060ff8116600090815260096020526040812061101091611047565b60ff81166000908152600860205260408120558061102d8161131c565b915050610f58565b5060006007819055600a819055600b55565b50805460008255906000526020600020908101906110659190611068565b50565b5b8082111561107d5760008155600101611069565b5090565b60006020828403121561109357600080fd5b81356001600160a01b03811681146110aa57600080fd5b9392505050565b803560ff811681146110c257600080fd5b919050565b6000602082840312156110d957600080fd5b6110aa826110b1565b600080604083850312156110f557600080fd5b6110fe836110b1565b946020939093013593505050565b634e487b7160e01b600052602160045260246000fd5b602081016003831061114457634e487b7160e01b600052602160045260246000fd5b91905290565b6020808252825182820181905260009190848201906040850190845b8181101561118b5783516001600160a01b031683529284019291840191600101611166565b50909695505050505050565b6000602082840312156111a957600080fd5b5051919050565b6020808252818101527f496e76616c696420636f696e20494420286d7573742062652030206f72203129604082015260600190565b634e487b7160e01b600052601160045260246000fd5b808202811582820484141761086c5761086c6111e5565b8082018082111561086c5761086c6111e5565b8181038181111561086c5761086c6111e5565b60ff818116838216019081111561086c5761086c6111e5565b600060018201611263576112636111e5565b5060010190565b60ff828116828216039081111561086c5761086c6111e5565b60208082526025908201527f4f6e6c79206f7267616e697a65722063616e2063616c6c20746869732066756e60408201526431ba34b7b760d91b606082015260800190565b634e487b7160e01b600052601260045260246000fd5b6000826112ed576112ed6112c8565b500490565b600082611301576113016112c8565b500690565b634e487b7160e01b600052603260045260246000fd5b600060ff821660ff8103611332576113326111e5565b6001019291505056fea2646970667358221220e888a77b15b13dbb72d627c8f49eec23d55f41a88922f5821bcb6219210e5df964736f6c63430008140033",
  "devdoc": {
    "author": "BuidlGuidl",
    "kind": "dev",
    "methods": {
      "joinRace(uint8)": {
        "params": {
          "coinId": "The team to support (0 = Bitcoin, 1 = Ethereum)"
        }
      }
    },
    "version": 1
  },
  "userdoc": {
    "kind": "user",
    "methods": {
      "joinRace(uint8)": {
        "notice": "Join the race by supporting a specific crypto team"
      },
      "resetGame()": {
        "notice": "Reset the game to lobby state (only organizer)"
      },
      "startGame()": {
        "notice": "Start the game (only organizer) Requires at least one player supporting each coin"
      },
      "tap()": {
        "notice": "Tap to advance the supported coin Pure speed contest - tap as fast as you can!"
      }
    },
    "notice": "Tapnad - Bitcoin vs Ethereum Racing Game dApp Players tap to advance their chosen crypto around a circular track Team Bitcoin () vs Team Ethereum ()",
    "version": 1
  },
  "storageLayout": {
    "storage": [
      {
        "astId": 12,
        "contract": "contracts/Race.sol:Race",
        "label": "gameState",
        "offset": 0,
        "slot": "0",
        "type": "t_enum(GameState)7"
      },
      {
        "astId": 16,
        "contract": "contracts/Race.sol:Race",
        "label": "currentLap",
        "offset": 0,
        "slot": "1",
        "type": "t_mapping(t_uint8,t_uint256)"
      },
      {
        "astId": 20,
        "contract": "contracts/Race.sol:Race",
        "label": "coinPosition",
        "offset": 0,
        "slot": "2",
        "type": "t_mapping(t_uint8,t_uint256)"
      },
      {
        "astId": 24,
        "contract": "contracts/Race.sol:Race",
        "label": "playerSupports",
        "offset": 0,
        "slot": "3",
        "type": "t_mapping(t_address,t_uint8)"
      },
      {
        "astId": 28,
        "contract": "contracts/Race.sol:Race",
        "label": "playerTaps",
        "offset": 0,
        "slot": "4",
        "type": "t_mapping(t_address,t_uint256)"
      },
      {
        "astId": 32,
        "contract": "contracts/Race.sol:Race",
        "label": "totalTaps",
        "offset": 0,
        "slot": "5",
        "type": "t_mapping(t_uint8,t_uint256)"
      },
      {
        "astId": 36,
        "contract": "contracts/Race.sol:Race",
        "label": "lastTapTime",
        "offset": 0,
        "slot": "6",
        "type": "t_mapping(t_address,t_uint256)"
      },
      {
        "astId": 38,
        "contract": "contracts/Race.sol:Race",
        "label": "totalPlayers",
        "offset": 0,
        "slot": "7",
        "type": "t_uint256"
      },
      {
        "astId": 42,
        "contract": "contracts/Race.sol:Race",
        "label": "coinSupporters",
        "offset": 0,
        "slot": "8",
        "type": "t_mapping(t_uint8,t_uint256)"
      },
      {
        "astId": 47,
        "contract": "contracts/Race.sol:Race",
        "label": "coinSupportersList",
        "offset": 0,
        "slot": "9",
        "type": "t_mapping(t_uint8,t_array(t_address)dyn_storage)"
      },
      {
        "astId": 55,
        "contract": "contracts/Race.sol:Race",
        "label": "gameStartTime",
        "offset": 0,
        "slot": "10",
        "type": "t_uint256"
      },
      {
        "astId": 57,
        "contract": "contracts/Race.sol:Race",
        "label": "gameEndTime",
        "offset": 0,
        "slot": "11",
        "type": "t_uint256"
      }
    ],
    "types": {
      "t_address": {
        "encoding": "inplace",
        "label": "address",
        "numberOfBytes": "20"
      },
      "t_array(t_address)dyn_storage": {
        "base": "t_address",
        "encoding": "dynamic_array",
        "label": "address[]",
        "numberOfBytes": "32"
      },
      "t_enum(GameState)7": {
        "encoding": "inplace",
        "label": "enum Race.GameState",
        "numberOfBytes": "1"
      },
      "t_mapping(t_address,t_uint256)": {
        "encoding": "mapping",
        "key": "t_address",
        "label": "mapping(address => uint256)",
        "numberOfBytes": "32",
        "value": "t_uint256"
      },
      "t_mapping(t_address,t_uint8)": {
        "encoding": "mapping",
        "key": "t_address",
        "label": "mapping(address => uint8)",
        "numberOfBytes": "32",
        "value": "t_uint8"
      },
      "t_mapping(t_uint8,t_array(t_address)dyn_storage)": {
        "encoding": "mapping",
        "key": "t_uint8",
        "label": "mapping(uint8 => address[])",
        "numberOfBytes": "32",
        "value": "t_array(t_address)dyn_storage"
      },
      "t_mapping(t_uint8,t_uint256)": {
        "encoding": "mapping",
        "key": "t_uint8",
        "label": "mapping(uint8 => uint256)",
        "numberOfBytes": "32",
        "value": "t_uint256"
      },
      "t_uint256": {
        "encoding": "inplace",
        "label": "uint256",
        "numberOfBytes": "32"
      },
      "t_uint8": {
        "encoding": "inplace",
        "label": "uint8",
        "numberOfBytes": "1"
      }
    }
  }
}